{
  "contractName": "Lottery",
  "abi": [
    {
      "inputs": [],
      "stateMutability": "nonpayable",
      "type": "constructor"
    },
    {
      "anonymous": false,
      "inputs": [
        {
          "indexed": true,
          "internalType": "address",
          "name": "owner",
          "type": "address"
        },
        {
          "indexed": true,
          "internalType": "address",
          "name": "spender",
          "type": "address"
        },
        {
          "indexed": false,
          "internalType": "uint256",
          "name": "value",
          "type": "uint256"
        }
      ],
      "name": "Approval",
      "type": "event"
    },
    {
      "anonymous": false,
      "inputs": [
        {
          "indexed": true,
          "internalType": "address",
          "name": "previousOwner",
          "type": "address"
        },
        {
          "indexed": true,
          "internalType": "address",
          "name": "newOwner",
          "type": "address"
        }
      ],
      "name": "OwnershipTransferred",
      "type": "event"
    },
    {
      "anonymous": false,
      "inputs": [
        {
          "indexed": true,
          "internalType": "address",
          "name": "from",
          "type": "address"
        },
        {
          "indexed": true,
          "internalType": "address",
          "name": "to",
          "type": "address"
        },
        {
          "indexed": false,
          "internalType": "uint256",
          "name": "value",
          "type": "uint256"
        }
      ],
      "name": "Transfer",
      "type": "event"
    },
    {
      "inputs": [
        {
          "internalType": "address",
          "name": "owner",
          "type": "address"
        },
        {
          "internalType": "address",
          "name": "spender",
          "type": "address"
        }
      ],
      "name": "allowance",
      "outputs": [
        {
          "internalType": "uint256",
          "name": "",
          "type": "uint256"
        }
      ],
      "stateMutability": "view",
      "type": "function",
      "constant": true
    },
    {
      "inputs": [
        {
          "internalType": "address",
          "name": "spender",
          "type": "address"
        },
        {
          "internalType": "uint256",
          "name": "amount",
          "type": "uint256"
        }
      ],
      "name": "approve",
      "outputs": [
        {
          "internalType": "bool",
          "name": "",
          "type": "bool"
        }
      ],
      "stateMutability": "nonpayable",
      "type": "function"
    },
    {
      "inputs": [
        {
          "internalType": "address",
          "name": "account",
          "type": "address"
        }
      ],
      "name": "balanceOf",
      "outputs": [
        {
          "internalType": "uint256",
          "name": "",
          "type": "uint256"
        }
      ],
      "stateMutability": "view",
      "type": "function",
      "constant": true
    },
    {
      "inputs": [],
      "name": "decimals",
      "outputs": [
        {
          "internalType": "uint8",
          "name": "",
          "type": "uint8"
        }
      ],
      "stateMutability": "view",
      "type": "function",
      "constant": true
    },
    {
      "inputs": [
        {
          "internalType": "address",
          "name": "spender",
          "type": "address"
        },
        {
          "internalType": "uint256",
          "name": "subtractedValue",
          "type": "uint256"
        }
      ],
      "name": "decreaseAllowance",
      "outputs": [
        {
          "internalType": "bool",
          "name": "",
          "type": "bool"
        }
      ],
      "stateMutability": "nonpayable",
      "type": "function"
    },
    {
      "inputs": [
        {
          "internalType": "address",
          "name": "spender",
          "type": "address"
        },
        {
          "internalType": "uint256",
          "name": "addedValue",
          "type": "uint256"
        }
      ],
      "name": "increaseAllowance",
      "outputs": [
        {
          "internalType": "bool",
          "name": "",
          "type": "bool"
        }
      ],
      "stateMutability": "nonpayable",
      "type": "function"
    },
    {
      "inputs": [],
      "name": "name",
      "outputs": [
        {
          "internalType": "string",
          "name": "",
          "type": "string"
        }
      ],
      "stateMutability": "view",
      "type": "function",
      "constant": true
    },
    {
      "inputs": [],
      "name": "nft",
      "outputs": [
        {
          "internalType": "address",
          "name": "",
          "type": "address"
        }
      ],
      "stateMutability": "view",
      "type": "function",
      "constant": true
    },
    {
      "inputs": [],
      "name": "owner",
      "outputs": [
        {
          "internalType": "address",
          "name": "",
          "type": "address"
        }
      ],
      "stateMutability": "view",
      "type": "function",
      "constant": true
    },
    {
      "inputs": [],
      "name": "renounceOwnership",
      "outputs": [],
      "stateMutability": "nonpayable",
      "type": "function"
    },
    {
      "inputs": [],
      "name": "symbol",
      "outputs": [
        {
          "internalType": "string",
          "name": "",
          "type": "string"
        }
      ],
      "stateMutability": "view",
      "type": "function",
      "constant": true
    },
    {
      "inputs": [],
      "name": "ticketPrice",
      "outputs": [
        {
          "internalType": "uint256",
          "name": "",
          "type": "uint256"
        }
      ],
      "stateMutability": "view",
      "type": "function",
      "constant": true
    },
    {
      "inputs": [],
      "name": "totalSupply",
      "outputs": [
        {
          "internalType": "uint256",
          "name": "",
          "type": "uint256"
        }
      ],
      "stateMutability": "view",
      "type": "function",
      "constant": true
    },
    {
      "inputs": [
        {
          "internalType": "address",
          "name": "to",
          "type": "address"
        },
        {
          "internalType": "uint256",
          "name": "amount",
          "type": "uint256"
        }
      ],
      "name": "transfer",
      "outputs": [
        {
          "internalType": "bool",
          "name": "",
          "type": "bool"
        }
      ],
      "stateMutability": "nonpayable",
      "type": "function"
    },
    {
      "inputs": [
        {
          "internalType": "address",
          "name": "from",
          "type": "address"
        },
        {
          "internalType": "address",
          "name": "to",
          "type": "address"
        },
        {
          "internalType": "uint256",
          "name": "amount",
          "type": "uint256"
        }
      ],
      "name": "transferFrom",
      "outputs": [
        {
          "internalType": "bool",
          "name": "",
          "type": "bool"
        }
      ],
      "stateMutability": "nonpayable",
      "type": "function"
    },
    {
      "inputs": [
        {
          "internalType": "address",
          "name": "newOwner",
          "type": "address"
        }
      ],
      "name": "transferOwnership",
      "outputs": [],
      "stateMutability": "nonpayable",
      "type": "function"
    },
    {
      "inputs": [
        {
          "internalType": "address",
          "name": "",
          "type": "address"
        }
      ],
      "name": "user_contract",
      "outputs": [
        {
          "internalType": "address",
          "name": "",
          "type": "address"
        }
      ],
      "stateMutability": "view",
      "type": "function",
      "constant": true
    },
    {
      "inputs": [],
      "name": "winner",
      "outputs": [
        {
          "internalType": "address",
          "name": "",
          "type": "address"
        }
      ],
      "stateMutability": "view",
      "type": "function",
      "constant": true
    },
    {
      "inputs": [
        {
          "internalType": "address",
          "name": "_account",
          "type": "address"
        }
      ],
      "name": "tokenBalance",
      "outputs": [
        {
          "internalType": "uint256",
          "name": "",
          "type": "uint256"
        }
      ],
      "stateMutability": "view",
      "type": "function",
      "constant": true
    },
    {
      "inputs": [],
      "name": "contractTokenBalance",
      "outputs": [
        {
          "internalType": "uint256",
          "name": "",
          "type": "uint256"
        }
      ],
      "stateMutability": "view",
      "type": "function",
      "constant": true
    },
    {
      "inputs": [],
      "name": "contractEtherBalance",
      "outputs": [
        {
          "internalType": "uint256",
          "name": "",
          "type": "uint256"
        }
      ],
      "stateMutability": "view",
      "type": "function",
      "constant": true
    },
    {
      "inputs": [
        {
          "internalType": "uint256",
          "name": "_amount",
          "type": "uint256"
        }
      ],
      "name": "mint",
      "outputs": [],
      "stateMutability": "nonpayable",
      "type": "function"
    },
    {
      "inputs": [
        {
          "internalType": "address",
          "name": "_account",
          "type": "address"
        }
      ],
      "name": "userInfo",
      "outputs": [
        {
          "internalType": "address",
          "name": "",
          "type": "address"
        }
      ],
      "stateMutability": "view",
      "type": "function",
      "constant": true
    },
    {
      "inputs": [
        {
          "internalType": "uint256",
          "name": "_numTokens",
          "type": "uint256"
        }
      ],
      "name": "buyTokens",
      "outputs": [],
      "stateMutability": "payable",
      "type": "function",
      "payable": true
    },
    {
      "inputs": [
        {
          "internalType": "uint256",
          "name": "_numTokens",
          "type": "uint256"
        }
      ],
      "name": "returnTokens",
      "outputs": [],
      "stateMutability": "payable",
      "type": "function",
      "payable": true
    },
    {
      "inputs": [
        {
          "internalType": "uint256",
          "name": "_numTickets",
          "type": "uint256"
        }
      ],
      "name": "buyTicket",
      "outputs": [],
      "stateMutability": "nonpayable",
      "type": "function"
    },
    {
      "inputs": [
        {
          "internalType": "address",
          "name": "_owner",
          "type": "address"
        }
      ],
      "name": "viewTickets",
      "outputs": [
        {
          "internalType": "uint256[]",
          "name": "",
          "type": "uint256[]"
        }
      ],
      "stateMutability": "view",
      "type": "function",
      "constant": true
    },
    {
      "inputs": [],
      "name": "getWinnerDetails",
      "outputs": [
        {
          "internalType": "uint256",
          "name": "",
          "type": "uint256"
        },
        {
          "internalType": "address",
          "name": "",
          "type": "address"
        }
      ],
      "stateMutability": "view",
      "type": "function",
      "constant": true
    },
    {
      "inputs": [],
      "name": "generateWinner",
      "outputs": [],
      "stateMutability": "nonpayable",
      "type": "function"
    }
  ],
  "bytecode": "0x608060405260056009556000600c553480156200001b57600080fd5b506040518060400160405280600781526020017f4c6f7474657279000000000000000000000000000000000000000000000000008152506040518060400160405280600381526020017f52465200000000000000000000000000000000000000000000000000000000008152508160039080519060200190620000a0929190620003b4565b508060049080519060200190620000b9929190620003b4565b505050620000dc620000d06200016360201b60201c565b6200016b60201b60201c565b620000f130620186a06200023160201b60201c565b604051620000ff9062000445565b604051809103906000f0801580156200011c573d6000803e3d6000fd5b50600660006101000a81548173ffffffffffffffffffffffffffffffffffffffff021916908373ffffffffffffffffffffffffffffffffffffffff1602179055506200061e565b600033905090565b6000600560009054906101000a900473ffffffffffffffffffffffffffffffffffffffff16905081600560006101000a81548173ffffffffffffffffffffffffffffffffffffffff021916908373ffffffffffffffffffffffffffffffffffffffff1602179055508173ffffffffffffffffffffffffffffffffffffffff168173ffffffffffffffffffffffffffffffffffffffff167f8be0079c531659141344cd1fd0a4f28419497f9722a3daafe3b4186f6b6457e060405160405180910390a35050565b600073ffffffffffffffffffffffffffffffffffffffff168273ffffffffffffffffffffffffffffffffffffffff161415620002a4576040517f08c379a00000000000000000000000000000000000000000000000000000000081526004016200029b90620004aa565b60405180910390fd5b620002b860008383620003aa60201b60201c565b8060026000828254620002cc9190620004fa565b92505081905550806000808473ffffffffffffffffffffffffffffffffffffffff1673ffffffffffffffffffffffffffffffffffffffff1681526020019081526020016000206000828254620003239190620004fa565b925050819055508173ffffffffffffffffffffffffffffffffffffffff16600073ffffffffffffffffffffffffffffffffffffffff167fddf252ad1be2c89b69c2b068fc378daa952ba7f163c4a11628f55a4df523b3ef836040516200038a9190620004cc565b60405180910390a3620003a660008383620003af60201b60201c565b5050565b505050565b505050565b828054620003c29062000561565b90600052602060002090601f016020900481019282620003e6576000855562000432565b82601f106200040157805160ff191683800117855562000432565b8280016001018555821562000432579182015b828111156200043157825182559160200191906001019062000414565b5b50905062000441919062000453565b5090565b612b66806200414483390190565b5b808211156200046e57600081600090555060010162000454565b5090565b600062000481601f83620004e9565b91506200048e82620005f5565b602082019050919050565b620004a48162000557565b82525050565b60006020820190508181036000830152620004c58162000472565b9050919050565b6000602082019050620004e3600083018462000499565b92915050565b600082825260208201905092915050565b6000620005078262000557565b9150620005148362000557565b9250827fffffffffffffffffffffffffffffffffffffffffffffffffffffffffffffffff038211156200054c576200054b62000597565b5b828201905092915050565b6000819050919050565b600060028204905060018216806200057a57607f821691505b60208210811415620005915762000590620005c6565b5b50919050565b7f4e487b7100000000000000000000000000000000000000000000000000000000600052601160045260246000fd5b7f4e487b7100000000000000000000000000000000000000000000000000000000600052602260045260246000fd5b7f45524332303a206d696e7420746f20746865207a65726f206164647265737300600082015250565b613b16806200062e6000396000f3fe608060405260043610620001ee5760003560e01c806367dd74ca116200010f578063a457c2d711620000a3578063dfbf53ae116200006d578063dfbf53ae146200071b578063ec39335f146200074b578063eedc966a146200077c578063f2fde38b14620007c057620001ee565b8063a457c2d7146200060b578063a9059cbb146200064f578063d3bb545c1462000693578063dd62ed3e14620006d757620001ee565b80638da5cb5b11620000e55780638da5cb5b146200054d57806395d89b41146200057d5780639e9aed6214620005ad578063a0712d6814620005dd57620001ee565b806367dd74ca14620004c157806370a0823114620004ef578063715018a6146200053357620001ee565b80631fff0ee811620001875780633610724e116200015d5780633610724e146200040d57806339509351146200042d5780633ae1786f146200047157806347ccca02146200049157620001ee565b80631fff0ee8146200036957806323b872dd1462000399578063313ce56714620003dd57620001ee565b80631209b1f611620001c95780631209b1f614620002ab57806318160ddd14620002db578063188af657146200030b5780631959a002146200032557620001ee565b80630357ccd614620001f357806306fdde031462000237578063095ea7b31462000267575b600080fd5b3480156200020057600080fd5b506200021f6004803603810190620002199190620022e2565b620007ee565b6040516200022e919062002859565b60405180910390f35b3480156200024457600080fd5b506200024f62000821565b6040516200025e919062002921565b60405180910390f35b3480156200027457600080fd5b506200029360048036038101906200028d9190620023a5565b620008bb565b604051620002a2919062002904565b60405180910390f35b348015620002b857600080fd5b50620002c3620008e2565b604051620002d2919062002b87565b60405180910390f35b348015620002e857600080fd5b50620002f3620008e8565b60405162000302919062002b87565b60405180910390f35b3480156200031857600080fd5b5062000323620008f2565b005b3480156200033257600080fd5b506200035160048036038101906200034b9190620022e2565b62000bb8565b60405162000360919062002859565b60405180910390f35b3480156200037657600080fd5b506200038162000c21565b60405162000390919062002b87565b60405180910390f35b348015620003a657600080fd5b50620003c56004803603810190620003bf91906200234f565b62000c29565b604051620003d4919062002904565b60405180910390f35b348015620003ea57600080fd5b50620003f562000c5e565b60405162000404919062002bd1565b60405180910390f35b6200042b6004803603810190620004259190620023e6565b62000c67565b005b3480156200043a57600080fd5b50620004596004803603810190620004539190620023a5565b62000e28565b60405162000468919062002904565b60405180910390f35b6200048f6004803603810190620004899190620023e6565b62000ed8565b005b3480156200049e57600080fd5b50620004a962000fd0565b604051620004b8919062002859565b60405180910390f35b348015620004ce57600080fd5b50620004ed6004803603810190620004e79190620023e6565b62000ff6565b005b348015620004fc57600080fd5b506200051b6004803603810190620005159190620022e2565b6200129f565b6040516200052a919062002b87565b60405180910390f35b3480156200054057600080fd5b506200054b620012e7565b005b3480156200055a57600080fd5b506200056562001378565b60405162000574919062002859565b60405180910390f35b3480156200058a57600080fd5b5062000595620013a2565b604051620005a4919062002921565b60405180910390f35b348015620005ba57600080fd5b50620005c56200143c565b604051620005d4919062002b87565b60405180910390f35b348015620005ea57600080fd5b50620006096004803603810190620006039190620023e6565b6200144e565b005b3480156200061857600080fd5b50620006376004803603810190620006319190620023a5565b620014e0565b60405162000646919062002904565b60405180910390f35b3480156200065c57600080fd5b506200067b6004803603810190620006759190620023a5565b620015d1565b6040516200068a919062002904565b60405180910390f35b348015620006a057600080fd5b50620006bf6004803603810190620006b99190620022e2565b620015f8565b604051620006ce9190620028e0565b60405180910390f35b348015620006e457600080fd5b50620007036004803603810190620006fd91906200230e565b62001691565b60405162000712919062002b87565b60405180910390f35b3480156200072857600080fd5b506200073362001718565b60405162000742919062002859565b60405180910390f35b3480156200075857600080fd5b50620007636200173e565b6040516200077392919062002ba4565b60405180910390f35b3480156200078957600080fd5b50620007a86004803603810190620007a29190620022e2565b6200194d565b604051620007b7919062002b87565b60405180910390f35b348015620007cd57600080fd5b50620007ec6004803603810190620007e69190620022e2565b62001961565b005b60086020528060005260406000206000915054906101000a900473ffffffffffffffffffffffffffffffffffffffff1681565b606060038054620008329062002e01565b80601f0160208091040260200160405190810160405280929190818152602001828054620008609062002e01565b8015620008b15780601f106200088557610100808354040283529160200191620008b1565b820191906000526020600020905b8154815290600101906020018083116200089357829003601f168201915b5050505050905090565b600080620008c862001a65565b9050620008d781858562001a6d565b600191505092915050565b60095481565b6000600254905090565b620008fc62001a65565b73ffffffffffffffffffffffffffffffffffffffff166200091c62001378565b73ffffffffffffffffffffffffffffffffffffffff161462000975576040517f08c379a00000000000000000000000000000000000000000000000000000000081526004016200096c9062002a55565b60405180910390fd5b6000600d80549050905060008111620009c5576040517f08c379a0000000000000000000000000000000000000000000000000000000008152600401620009bc9062002a11565b60405180910390fd5b60008142604051602001620009db9190620027f9565b6040516020818303038152906040528051906020012060001c62000a00919062002eb7565b90506000600d828154811062000a3f577f4e487b7100000000000000000000000000000000000000000000000000000000600052603260045260246000fd5b90600052602060002001549050600b600082815260200190815260200160002060009054906101000a900473ffffffffffffffffffffffffffffffffffffffff16600760006101000a81548173ffffffffffffffffffffffffffffffffffffffff021916908373ffffffffffffffffffffffffffffffffffffffff160217905550600760009054906101000a900473ffffffffffffffffffffffffffffffffffffffff1673ffffffffffffffffffffffffffffffffffffffff166108fc6064605f4762000b0d919062002cd8565b62000b19919062002ca0565b9081150290604051600060405180830381858888f1935050505015801562000b45573d6000803e3d6000fd5b5062000b5062001378565b73ffffffffffffffffffffffffffffffffffffffff166108fc606460054762000b7a919062002cd8565b62000b86919062002ca0565b9081150290604051600060405180830381858888f1935050505015801562000bb2573d6000803e3d6000fd5b50505050565b6000600860008373ffffffffffffffffffffffffffffffffffffffff1673ffffffffffffffffffffffffffffffffffffffff16815260200190815260200160002060009054906101000a900473ffffffffffffffffffffffffffffffffffffffff169050919050565b600047905090565b60008062000c3662001a65565b905062000c4585828562001c40565b62000c5285858562001cd4565b60019150509392505050565b60006012905090565b600073ffffffffffffffffffffffffffffffffffffffff16600860003373ffffffffffffffffffffffffffffffffffffffff1673ffffffffffffffffffffffffffffffffffffffff16815260200190815260200160002060009054906101000a900473ffffffffffffffffffffffffffffffffffffffff1673ffffffffffffffffffffffffffffffffffffffff16141562000d075762000d0662001f66565b5b600062000d14826200204a565b90508034101562000d5c576040517f08c379a000000000000000000000000000000000000000000000000000000000815260040162000d539062002a33565b60405180910390fd5b600062000d686200143c565b90508083111562000db0576040517f08c379a000000000000000000000000000000000000000000000000000000000815260040162000da790620029ab565b60405180910390fd5b6000823462000dc0919062002d39565b9050600081111562000e15573373ffffffffffffffffffffffffffffffffffffffff166108fc829081150290604051600060405180830381858888f1935050505015801562000e13573d6000803e3d6000fd5b505b62000e2230338662001cd4565b50505050565b60008062000e3562001a65565b905062000ecd818585600160008673ffffffffffffffffffffffffffffffffffffffff1673ffffffffffffffffffffffffffffffffffffffff16815260200190815260200160002060008973ffffffffffffffffffffffffffffffffffffffff1673ffffffffffffffffffffffffffffffffffffffff1681526020019081526020016000205462000ec7919062002c43565b62001a6d565b600191505092915050565b6000811162000f1e576040517f08c379a000000000000000000000000000000000000000000000000000000000815260040162000f159062002aff565b60405180910390fd5b62000f29336200194d565b81111562000f6e576040517f08c379a000000000000000000000000000000000000000000000000000000000815260040162000f659062002abb565b60405180910390fd5b62000f7b33308362001cd4565b3373ffffffffffffffffffffffffffffffffffffffff166108fc62000fa0836200204a565b9081150290604051600060405180830381858888f1935050505015801562000fcc573d6000803e3d6000fd5b5050565b600660009054906101000a900473ffffffffffffffffffffffffffffffffffffffff1681565b60006009548262001008919062002cd8565b905062001015336200194d565b8111156200105a576040517f08c379a0000000000000000000000000000000000000000000000000000000008152600401620010519062002b21565b60405180910390fd5b6200106733308362001cd4565b60005b828110156200129a5760006127104233600c54604051602001620010919392919062002816565b6040516020818303038152906040528051906020012060001c620010b6919062002eb7565b9050600c6000815480929190620010cd9062002e37565b9190505550600a60003373ffffffffffffffffffffffffffffffffffffffff1673ffffffffffffffffffffffffffffffffffffffff168152602001908152602001600020819080600181540180825580915050600190039060005260206000200160009091909190915055600d81908060018154018082558091505060019003906000526020600020016000909190919091505533600b600083815260200190815260200160002060006101000a81548173ffffffffffffffffffffffffffffffffffffffff021916908373ffffffffffffffffffffffffffffffffffffffff160217905550600860003373ffffffffffffffffffffffffffffffffffffffff1673ffffffffffffffffffffffffffffffffffffffff16815260200190815260200160002060009054906101000a900473ffffffffffffffffffffffffffffffffffffffff1673ffffffffffffffffffffffffffffffffffffffff1663a5f7f46633836040518363ffffffff1660e01b81526004016200124f929190620028b3565b600060405180830381600087803b1580156200126a57600080fd5b505af11580156200127f573d6000803e3d6000fd5b50505050508080620012919062002e37565b9150506200106a565b505050565b60008060008373ffffffffffffffffffffffffffffffffffffffff1673ffffffffffffffffffffffffffffffffffffffff168152602001908152602001600020549050919050565b620012f162001a65565b73ffffffffffffffffffffffffffffffffffffffff166200131162001378565b73ffffffffffffffffffffffffffffffffffffffff16146200136a576040517f08c379a0000000000000000000000000000000000000000000000000000000008152600401620013619062002a55565b60405180910390fd5b62001376600062002069565b565b6000600560009054906101000a900473ffffffffffffffffffffffffffffffffffffffff16905090565b606060048054620013b39062002e01565b80601f0160208091040260200160405190810160405280929190818152602001828054620013e19062002e01565b8015620014325780601f10620014065761010080835404028352916020019162001432565b820191906000526020600020905b8154815290600101906020018083116200141457829003601f168201915b5050505050905090565b600062001449306200129f565b905090565b6200145862001a65565b73ffffffffffffffffffffffffffffffffffffffff166200147862001378565b73ffffffffffffffffffffffffffffffffffffffff1614620014d1576040517f08c379a0000000000000000000000000000000000000000000000000000000008152600401620014c89062002a55565b60405180910390fd5b620014dd30826200212f565b50565b600080620014ed62001a65565b90506000600160008373ffffffffffffffffffffffffffffffffffffffff1673ffffffffffffffffffffffffffffffffffffffff16815260200190815260200160002060008673ffffffffffffffffffffffffffffffffffffffff1673ffffffffffffffffffffffffffffffffffffffff16815260200190815260200160002054905083811015620015b6576040517f08c379a0000000000000000000000000000000000000000000000000000000008152600401620015ad9062002b43565b60405180910390fd5b620015c5828686840362001a6d565b60019250505092915050565b600080620015de62001a65565b9050620015ed81858562001cd4565b600191505092915050565b6060600a60008373ffffffffffffffffffffffffffffffffffffffff1673ffffffffffffffffffffffffffffffffffffffff1681526020019081526020016000208054806020026020016040519081016040528092919081815260200182805480156200168557602002820191906000526020600020905b81548152602001906001019080831162001670575b50505050509050919050565b6000600160008473ffffffffffffffffffffffffffffffffffffffff1673ffffffffffffffffffffffffffffffffffffffff16815260200190815260200160002060008373ffffffffffffffffffffffffffffffffffffffff1673ffffffffffffffffffffffffffffffffffffffff16815260200190815260200160002054905092915050565b600760009054906101000a900473ffffffffffffffffffffffffffffffffffffffff1681565b600080600073ffffffffffffffffffffffffffffffffffffffff16600760009054906101000a900473ffffffffffffffffffffffffffffffffffffffff1673ffffffffffffffffffffffffffffffffffffffff161415620017d6576040517f08c379a0000000000000000000000000000000000000000000000000000000008152600401620017cd9062002a77565b60405180910390fd5b600080600090505b600d805490508110156200191f57600760009054906101000a900473ffffffffffffffffffffffffffffffffffffffff1673ffffffffffffffffffffffffffffffffffffffff16600b6000600d848154811062001864577f4e487b7100000000000000000000000000000000000000000000000000000000600052603260045260246000fd5b9060005260206000200154815260200190815260200160002060009054906101000a900473ffffffffffffffffffffffffffffffffffffffff1673ffffffffffffffffffffffffffffffffffffffff1614156200190957600d8181548110620018f6577f4e487b7100000000000000000000000000000000000000000000000000000000600052603260045260246000fd5b906000526020600020015491506200191f565b8080620019169062002e37565b915050620017de565b5080600760009054906101000a900473ffffffffffffffffffffffffffffffffffffffff1692509250509091565b60006200195a826200129f565b9050919050565b6200196b62001a65565b73ffffffffffffffffffffffffffffffffffffffff166200198b62001378565b73ffffffffffffffffffffffffffffffffffffffff1614620019e4576040517f08c379a0000000000000000000000000000000000000000000000000000000008152600401620019db9062002a55565b60405180910390fd5b600073ffffffffffffffffffffffffffffffffffffffff168173ffffffffffffffffffffffffffffffffffffffff16141562001a57576040517f08c379a000000000000000000000000000000000000000000000000000000000815260040162001a4e9062002967565b60405180910390fd5b62001a628162002069565b50565b600033905090565b600073ffffffffffffffffffffffffffffffffffffffff168373ffffffffffffffffffffffffffffffffffffffff16141562001ae0576040517f08c379a000000000000000000000000000000000000000000000000000000000815260040162001ad79062002add565b60405180910390fd5b600073ffffffffffffffffffffffffffffffffffffffff168273ffffffffffffffffffffffffffffffffffffffff16141562001b53576040517f08c379a000000000000000000000000000000000000000000000000000000000815260040162001b4a9062002989565b60405180910390fd5b80600160008573ffffffffffffffffffffffffffffffffffffffff1673ffffffffffffffffffffffffffffffffffffffff16815260200190815260200160002060008473ffffffffffffffffffffffffffffffffffffffff1673ffffffffffffffffffffffffffffffffffffffff168152602001908152602001600020819055508173ffffffffffffffffffffffffffffffffffffffff168373ffffffffffffffffffffffffffffffffffffffff167f8c5be1e5ebec7d5bd14f71427d1e84f3dd0314c0f7b2291e5b200ac8c7c3b9258360405162001c33919062002b87565b60405180910390a3505050565b600062001c4e848462001691565b90507fffffffffffffffffffffffffffffffffffffffffffffffffffffffffffffffff811462001cce578181101562001cbe576040517f08c379a000000000000000000000000000000000000000000000000000000000815260040162001cb590620029cd565b60405180910390fd5b62001ccd848484840362001a6d565b5b50505050565b600073ffffffffffffffffffffffffffffffffffffffff168373ffffffffffffffffffffffffffffffffffffffff16141562001d47576040517f08c379a000000000000000000000000000000000000000000000000000000000815260040162001d3e9062002a99565b60405180910390fd5b600073ffffffffffffffffffffffffffffffffffffffff168273ffffffffffffffffffffffffffffffffffffffff16141562001dba576040517f08c379a000000000000000000000000000000000000000000000000000000000815260040162001db19062002945565b60405180910390fd5b62001dc78383836200229c565b60008060008573ffffffffffffffffffffffffffffffffffffffff1673ffffffffffffffffffffffffffffffffffffffff1681526020019081526020016000205490508181101562001e50576040517f08c379a000000000000000000000000000000000000000000000000000000000815260040162001e4790620029ef565b60405180910390fd5b8181036000808673ffffffffffffffffffffffffffffffffffffffff1673ffffffffffffffffffffffffffffffffffffffff16815260200190815260200160002081905550816000808573ffffffffffffffffffffffffffffffffffffffff1673ffffffffffffffffffffffffffffffffffffffff168152602001908152602001600020600082825462001ee5919062002c43565b925050819055508273ffffffffffffffffffffffffffffffffffffffff168473ffffffffffffffffffffffffffffffffffffffff167fddf252ad1be2c89b69c2b068fc378daa952ba7f163c4a11628f55a4df523b3ef8460405162001f4b919062002b87565b60405180910390a362001f60848484620022a1565b50505050565b60003330600660009054906101000a900473ffffffffffffffffffffffffffffffffffffffff1660405162001f9b90620022a6565b62001fa99392919062002876565b604051809103906000f08015801562001fc6573d6000803e3d6000fd5b50905080600860003373ffffffffffffffffffffffffffffffffffffffff1673ffffffffffffffffffffffffffffffffffffffff16815260200190815260200160002060006101000a81548173ffffffffffffffffffffffffffffffffffffffff021916908373ffffffffffffffffffffffffffffffffffffffff16021790555050565b6000670de0b6b3a76400008262002062919062002cd8565b9050919050565b6000600560009054906101000a900473ffffffffffffffffffffffffffffffffffffffff16905081600560006101000a81548173ffffffffffffffffffffffffffffffffffffffff021916908373ffffffffffffffffffffffffffffffffffffffff1602179055508173ffffffffffffffffffffffffffffffffffffffff168173ffffffffffffffffffffffffffffffffffffffff167f8be0079c531659141344cd1fd0a4f28419497f9722a3daafe3b4186f6b6457e060405160405180910390a35050565b600073ffffffffffffffffffffffffffffffffffffffff168273ffffffffffffffffffffffffffffffffffffffff161415620021a2576040517f08c379a0000000000000000000000000000000000000000000000000000000008152600401620021999062002b65565b60405180910390fd5b620021b0600083836200229c565b8060026000828254620021c4919062002c43565b92505081905550806000808473ffffffffffffffffffffffffffffffffffffffff1673ffffffffffffffffffffffffffffffffffffffff16815260200190815260200160002060008282546200221b919062002c43565b925050819055508173ffffffffffffffffffffffffffffffffffffffff16600073ffffffffffffffffffffffffffffffffffffffff167fddf252ad1be2c89b69c2b068fc378daa952ba7f163c4a11628f55a4df523b3ef8360405162002282919062002b87565b60405180910390a36200229860008383620022a1565b5050565b505050565b505050565b61070380620033de83390190565b600081359050620022c581620033a9565b92915050565b600081359050620022dc81620033c3565b92915050565b600060208284031215620022f557600080fd5b60006200230584828501620022b4565b91505092915050565b600080604083850312156200232257600080fd5b60006200233285828601620022b4565b92505060206200234585828601620022b4565b9150509250929050565b6000806000606084860312156200236557600080fd5b60006200237586828701620022b4565b93505060206200238886828701620022b4565b92505060406200239b86828701620022cb565b9150509250925092565b60008060408385031215620023b957600080fd5b6000620023c985828601620022b4565b9250506020620023dc85828601620022cb565b9150509250929050565b600060208284031215620023f957600080fd5b60006200240984828501620022cb565b91505092915050565b6000620024208383620027ab565b60208301905092915050565b620024378162002d74565b82525050565b620024526200244c8262002d74565b62002e85565b82525050565b6000620024658262002bfe565b62002471818562002c21565b93506200247e8362002bee565b8060005b83811015620024b557815162002499888262002412565b9750620024a68362002c14565b92505060018101905062002482565b5085935050505092915050565b620024cd8162002d88565b82525050565b6000620024e08262002c09565b620024ec818562002c32565b9350620024fe81856020860162002dcb565b620025098162002f7c565b840191505092915050565b60006200252360238362002c32565b9150620025308262002f9a565b604082019050919050565b60006200254a60268362002c32565b9150620025578262002fe9565b604082019050919050565b60006200257160228362002c32565b91506200257e8262003038565b604082019050919050565b60006200259860238362002c32565b9150620025a58262003087565b604082019050919050565b6000620025bf601d8362002c32565b9150620025cc82620030d6565b602082019050919050565b6000620025e660268362002c32565b9150620025f382620030ff565b604082019050919050565b60006200260d60148362002c32565b91506200261a826200314e565b602082019050919050565b60006200263460268362002c32565b9150620026418262003177565b604082019050919050565b60006200265b60208362002c32565b91506200266882620031c6565b602082019050919050565b60006200268260168362002c32565b91506200268f82620031ef565b602082019050919050565b6000620026a960258362002c32565b9150620026b68262003218565b604082019050919050565b6000620026d0601d8362002c32565b9150620026dd8262003267565b602082019050919050565b6000620026f760248362002c32565b9150620027048262003290565b604082019050919050565b60006200271e601e8362002c32565b91506200272b82620032df565b602082019050919050565b60006200274560138362002c32565b9150620027528262003308565b602082019050919050565b60006200276c60258362002c32565b9150620027798262003331565b604082019050919050565b600062002793601f8362002c32565b9150620027a08262003380565b602082019050919050565b620027b68162002db4565b82525050565b620027c78162002db4565b82525050565b620027e2620027dc8262002db4565b62002ead565b82525050565b620027f38162002dbe565b82525050565b6000620028078284620027cd565b60208201915081905092915050565b6000620028248286620027cd565b6020820191506200283682856200243d565b601482019150620028488284620027cd565b602082019150819050949350505050565b60006020820190506200287060008301846200242c565b92915050565b60006060820190506200288d60008301866200242c565b6200289c60208301856200242c565b620028ab60408301846200242c565b949350505050565b6000604082019050620028ca60008301856200242c565b620028d96020830184620027bc565b9392505050565b60006020820190508181036000830152620028fc818462002458565b905092915050565b60006020820190506200291b6000830184620024c2565b92915050565b600060208201905081810360008301526200293d8184620024d3565b905092915050565b60006020820190508181036000830152620029608162002514565b9050919050565b6000602082019050818103600083015262002982816200253b565b9050919050565b60006020820190508181036000830152620029a48162002562565b9050919050565b60006020820190508181036000830152620029c68162002589565b9050919050565b60006020820190508181036000830152620029e881620025b0565b9050919050565b6000602082019050818103600083015262002a0a81620025d7565b9050919050565b6000602082019050818103600083015262002a2c81620025fe565b9050919050565b6000602082019050818103600083015262002a4e8162002625565b9050919050565b6000602082019050818103600083015262002a70816200264c565b9050919050565b6000602082019050818103600083015262002a928162002673565b9050919050565b6000602082019050818103600083015262002ab4816200269a565b9050919050565b6000602082019050818103600083015262002ad681620026c1565b9050919050565b6000602082019050818103600083015262002af881620026e8565b9050919050565b6000602082019050818103600083015262002b1a816200270f565b9050919050565b6000602082019050818103600083015262002b3c8162002736565b9050919050565b6000602082019050818103600083015262002b5e816200275d565b9050919050565b6000602082019050818103600083015262002b808162002784565b9050919050565b600060208201905062002b9e6000830184620027bc565b92915050565b600060408201905062002bbb6000830185620027bc565b62002bca60208301846200242c565b9392505050565b600060208201905062002be86000830184620027e8565b92915050565b6000819050602082019050919050565b600081519050919050565b600081519050919050565b6000602082019050919050565b600082825260208201905092915050565b600082825260208201905092915050565b600062002c508262002db4565b915062002c5d8362002db4565b9250827fffffffffffffffffffffffffffffffffffffffffffffffffffffffffffffffff0382111562002c955762002c9462002eef565b5b828201905092915050565b600062002cad8262002db4565b915062002cba8362002db4565b92508262002ccd5762002ccc62002f1e565b5b828204905092915050565b600062002ce58262002db4565b915062002cf28362002db4565b9250817fffffffffffffffffffffffffffffffffffffffffffffffffffffffffffffffff048311821515161562002d2e5762002d2d62002eef565b5b828202905092915050565b600062002d468262002db4565b915062002d538362002db4565b92508282101562002d695762002d6862002eef565b5b828203905092915050565b600062002d818262002d94565b9050919050565b60008115159050919050565b600073ffffffffffffffffffffffffffffffffffffffff82169050919050565b6000819050919050565b600060ff82169050919050565b60005b8381101562002deb57808201518184015260208101905062002dce565b8381111562002dfb576000848401525b50505050565b6000600282049050600182168062002e1a57607f821691505b6020821081141562002e315762002e3062002f4d565b5b50919050565b600062002e448262002db4565b91507fffffffffffffffffffffffffffffffffffffffffffffffffffffffffffffffff82141562002e7a5762002e7962002eef565b5b600182019050919050565b600062002e928262002e99565b9050919050565b600062002ea68262002f8d565b9050919050565b6000819050919050565b600062002ec48262002db4565b915062002ed18362002db4565b92508262002ee45762002ee362002f1e565b5b828206905092915050565b7f4e487b7100000000000000000000000000000000000000000000000000000000600052601160045260246000fd5b7f4e487b7100000000000000000000000000000000000000000000000000000000600052601260045260246000fd5b7f4e487b7100000000000000000000000000000000000000000000000000000000600052602260045260246000fd5b6000601f19601f8301169050919050565b60008160601b9050919050565b7f45524332303a207472616e7366657220746f20746865207a65726f206164647260008201527f6573730000000000000000000000000000000000000000000000000000000000602082015250565b7f4f776e61626c653a206e6577206f776e657220697320746865207a65726f206160008201527f6464726573730000000000000000000000000000000000000000000000000000602082015250565b7f45524332303a20617070726f766520746f20746865207a65726f20616464726560008201527f7373000000000000000000000000000000000000000000000000000000000000602082015250565b7f42757920616e20617070726f707269617465206e756d626572206f6620746f6b60008201527f656e730000000000000000000000000000000000000000000000000000000000602082015250565b7f45524332303a20696e73756666696369656e7420616c6c6f77616e6365000000600082015250565b7f45524332303a207472616e7366657220616d6f756e742065786365656473206260008201527f616c616e63650000000000000000000000000000000000000000000000000000602082015250565b7f4e6f207469636b65747320707572636861736564000000000000000000000000600082015250565b7f427579206d6f726520746f6b656e73206f72207061792077697468206d6f726560008201527f2065746865720000000000000000000000000000000000000000000000000000602082015250565b7f4f776e61626c653a2063616c6c6572206973206e6f7420746865206f776e6572600082015250565b7f4e6f2077696e6e65722073656c65637465642079657400000000000000000000600082015250565b7f45524332303a207472616e736665722066726f6d20746865207a65726f20616460008201527f6472657373000000000000000000000000000000000000000000000000000000602082015250565b7f496e73756666696369656e7420746f6b656e7320746f2072657475726e000000600082015250565b7f45524332303a20617070726f76652066726f6d20746865207a65726f2061646460008201527f7265737300000000000000000000000000000000000000000000000000000000602082015250565b7f4d7573742072657475726e206d6f7265207468616e203020746f6b656e730000600082015250565b7f496e73756666696369656e7420746f6b656e7300000000000000000000000000600082015250565b7f45524332303a2064656372656173656420616c6c6f77616e63652062656c6f7760008201527f207a65726f000000000000000000000000000000000000000000000000000000602082015250565b7f45524332303a206d696e7420746f20746865207a65726f206164647265737300600082015250565b620033b48162002d74565b8114620033c057600080fd5b50565b620033ce8162002db4565b8114620033da57600080fd5b5056fe608060405234801561001057600080fd5b50604051610703380380610703833981810160405281019061003291906101e8565b60405180608001604052808473ffffffffffffffffffffffffffffffffffffffff1681526020018373ffffffffffffffffffffffffffffffffffffffff1681526020018273ffffffffffffffffffffffffffffffffffffffff1681526020013073ffffffffffffffffffffffffffffffffffffffff168152506000808201518160000160006101000a81548173ffffffffffffffffffffffffffffffffffffffff021916908373ffffffffffffffffffffffffffffffffffffffff16021790555060208201518160010160006101000a81548173ffffffffffffffffffffffffffffffffffffffff021916908373ffffffffffffffffffffffffffffffffffffffff16021790555060408201518160020160006101000a81548173ffffffffffffffffffffffffffffffffffffffff021916908373ffffffffffffffffffffffffffffffffffffffff16021790555060608201518160030160006101000a81548173ffffffffffffffffffffffffffffffffffffffff021916908373ffffffffffffffffffffffffffffffffffffffff160217905550905050505050610280565b6000815190506101e281610269565b92915050565b6000806000606084860312156101fd57600080fd5b600061020b868287016101d3565b935050602061021c868287016101d3565b925050604061022d868287016101d3565b9150509250925092565b600061024282610249565b9050919050565b600073ffffffffffffffffffffffffffffffffffffffff82169050919050565b61027281610237565b811461027d57600080fd5b50565b6104748061028f6000396000f3fe608060405234801561001057600080fd5b50600436106100365760003560e01c80638da5cb5b1461003b578063a5f7f4661461005c575b600080fd5b610043610078565b60405161005394939291906102e6565b60405180910390f35b61007660048036038101906100719190610269565b610116565b005b60008060000160009054906101000a900473ffffffffffffffffffffffffffffffffffffffff16908060010160009054906101000a900473ffffffffffffffffffffffffffffffffffffffff16908060020160009054906101000a900473ffffffffffffffffffffffffffffffffffffffff16908060030160009054906101000a900473ffffffffffffffffffffffffffffffffffffffff16905084565b600060010160009054906101000a900473ffffffffffffffffffffffffffffffffffffffff1673ffffffffffffffffffffffffffffffffffffffff163373ffffffffffffffffffffffffffffffffffffffff16146101a9576040517f08c379a00000000000000000000000000000000000000000000000000000000081526004016101a090610354565b60405180910390fd5b600060020160009054906101000a900473ffffffffffffffffffffffffffffffffffffffff1673ffffffffffffffffffffffffffffffffffffffff1663a144819483836040518363ffffffff1660e01b815260040161020992919061032b565b600060405180830381600087803b15801561022357600080fd5b505af1158015610237573d6000803e3d6000fd5b505050505050565b60008135905061024e81610410565b92915050565b60008135905061026381610427565b92915050565b6000806040838503121561027c57600080fd5b600061028a8582860161023f565b925050602061029b85828601610254565b9150509250929050565b6102ae81610385565b82525050565b60006102c1602783610374565b91506102cc826103c1565b604082019050919050565b6102e0816103b7565b82525050565b60006080820190506102fb60008301876102a5565b61030860208301866102a5565b61031560408301856102a5565b61032260608301846102a5565b95945050505050565b600060408201905061034060008301856102a5565b61034d60208301846102d7565b9392505050565b6000602082019050818103600083015261036d816102b4565b9050919050565b600082825260208201905092915050565b600061039082610397565b9050919050565b600073ffffffffffffffffffffffffffffffffffffffff82169050919050565b6000819050919050565b7f4e6f7420617574686f72697a656420746f20657865637574652074686973206660008201527f756e6374696f6e00000000000000000000000000000000000000000000000000602082015250565b61041981610385565b811461042457600080fd5b50565b610430816103b7565b811461043b57600080fd5b5056fea2646970667358221220dcc78f4ca0153eb7b2645b7a6ef1a227218217329c23269d775416b2dba787f564736f6c63430008040033a264697066735822122016bd5d48e19013b850c9c9c9fb83ec51c35524b0e208099bb14b2ad8e12e0e7264736f6c6343000804003360806040523480156200001157600080fd5b506040518060400160405280600781526020017f4c6f7474657279000000000000000000000000000000000000000000000000008152506040518060400160405280600281526020017f5246000000000000000000000000000000000000000000000000000000000000815250816000908051906020019062000096929190620000f9565b508060019080519060200190620000af929190620000f9565b50505033600660006101000a81548173ffffffffffffffffffffffffffffffffffffffff021916908373ffffffffffffffffffffffffffffffffffffffff1602179055506200020e565b8280546200010790620001a9565b90600052602060002090601f0160209004810192826200012b576000855562000177565b82601f106200014657805160ff191683800117855562000177565b8280016001018555821562000177579182015b828111156200017657825182559160200191906001019062000159565b5b5090506200018691906200018a565b5090565b5b80821115620001a55760008160009055506001016200018b565b5090565b60006002820490506001821680620001c257607f821691505b60208210811415620001d957620001d8620001df565b5b50919050565b7f4e487b7100000000000000000000000000000000000000000000000000000000600052602260045260246000fd5b612948806200021e6000396000f3fe608060405234801561001057600080fd5b50600436106100f55760003560e01c80636352211e11610097578063a22cb46511610066578063a22cb46514610284578063b88d4fde146102a0578063c87b56dd146102bc578063e985e9c5146102ec576100f5565b80636352211e146101ea57806370a082311461021a57806395d89b411461024a578063a144819414610268576100f5565b8063095ea7b3116100d3578063095ea7b31461017857806323b872dd146101945780633beedf6d146101b057806342842e0e146101ce576100f5565b806301ffc9a7146100fa57806306fdde031461012a578063081812fc14610148575b600080fd5b610114600480360381019061010f9190611ade565b61031c565b6040516101219190611ec1565b60405180910390f35b6101326103fe565b60405161013f9190611edc565b60405180910390f35b610162600480360381019061015d9190611b30565b610490565b60405161016f9190611e5a565b60405180910390f35b610192600480360381019061018d9190611aa2565b610515565b005b6101ae60048036038101906101a9919061199c565b61062d565b005b6101b861068d565b6040516101c59190611e5a565b60405180910390f35b6101e860048036038101906101e3919061199c565b6106b3565b005b61020460048036038101906101ff9190611b30565b6106d3565b6040516102119190611e5a565b60405180910390f35b610234600480360381019061022f919061190e565b610785565b60405161024191906120de565b60405180910390f35b61025261083d565b60405161025f9190611edc565b60405180910390f35b610282600480360381019061027d9190611aa2565b6108cf565b005b61029e60048036038101906102999190611a66565b6109f5565b005b6102ba60048036038101906102b591906119eb565b610a0b565b005b6102d660048036038101906102d19190611b30565b610a6d565b6040516102e39190611edc565b60405180910390f35b61030660048036038101906103019190611960565b610b14565b6040516103139190611ec1565b60405180910390f35b60007f80ac58cd000000000000000000000000000000000000000000000000000000007bffffffffffffffffffffffffffffffffffffffffffffffffffffffff1916827bffffffffffffffffffffffffffffffffffffffffffffffffffffffff191614806103e757507f5b5e139f000000000000000000000000000000000000000000000000000000007bffffffffffffffffffffffffffffffffffffffffffffffffffffffff1916827bffffffffffffffffffffffffffffffffffffffffffffffffffffffff1916145b806103f757506103f682610ba8565b5b9050919050565b60606000805461040d90612303565b80601f016020809104026020016040519081016040528092919081815260200182805461043990612303565b80156104865780601f1061045b57610100808354040283529160200191610486565b820191906000526020600020905b81548152906001019060200180831161046957829003601f168201915b5050505050905090565b600061049b82610c12565b6104da576040517f08c379a00000000000000000000000000000000000000000000000000000000081526004016104d19061203e565b60405180910390fd5b6004600083815260200190815260200160002060009054906101000a900473ffffffffffffffffffffffffffffffffffffffff169050919050565b6000610520826106d3565b90508073ffffffffffffffffffffffffffffffffffffffff168373ffffffffffffffffffffffffffffffffffffffff161415610591576040517f08c379a00000000000000000000000000000000000000000000000000000000081526004016105889061207e565b60405180910390fd5b8073ffffffffffffffffffffffffffffffffffffffff166105b0610c7e565b73ffffffffffffffffffffffffffffffffffffffff1614806105df57506105de816105d9610c7e565b610b14565b5b61061e576040517f08c379a000000000000000000000000000000000000000000000000000000000815260040161061590611fbe565b60405180910390fd5b6106288383610c86565b505050565b61063e610638610c7e565b82610d3f565b61067d576040517f08c379a00000000000000000000000000000000000000000000000000000000081526004016106749061209e565b60405180910390fd5b610688838383610e1d565b505050565b600660009054906101000a900473ffffffffffffffffffffffffffffffffffffffff1681565b6106ce83838360405180602001604052806000815250610a0b565b505050565b6000806002600084815260200190815260200160002060009054906101000a900473ffffffffffffffffffffffffffffffffffffffff169050600073ffffffffffffffffffffffffffffffffffffffff168173ffffffffffffffffffffffffffffffffffffffff16141561077c576040517f08c379a000000000000000000000000000000000000000000000000000000000815260040161077390611ffe565b60405180910390fd5b80915050919050565b60008073ffffffffffffffffffffffffffffffffffffffff168273ffffffffffffffffffffffffffffffffffffffff1614156107f6576040517f08c379a00000000000000000000000000000000000000000000000000000000081526004016107ed90611fde565b60405180910390fd5b600360008373ffffffffffffffffffffffffffffffffffffffff1673ffffffffffffffffffffffffffffffffffffffff168152602001908152602001600020549050919050565b60606001805461084c90612303565b80601f016020809104026020016040519081016040528092919081815260200182805461087890612303565b80156108c55780601f1061089a576101008083540402835291602001916108c5565b820191906000526020600020905b8154815290600101906020018083116108a857829003601f168201915b5050505050905090565b600660009054906101000a900473ffffffffffffffffffffffffffffffffffffffff1673ffffffffffffffffffffffffffffffffffffffff16631959a002836040518263ffffffff1660e01b815260040161092a9190611e5a565b60206040518083038186803b15801561094257600080fd5b505afa158015610956573d6000803e3d6000fd5b505050506040513d601f19601f8201168201806040525081019061097a9190611937565b73ffffffffffffffffffffffffffffffffffffffff163373ffffffffffffffffffffffffffffffffffffffff16146109e7576040517f08c379a00000000000000000000000000000000000000000000000000000000081526004016109de906120be565b60405180910390fd5b6109f18282611084565b5050565b610a07610a00610c7e565b83836110a2565b5050565b610a1c610a16610c7e565b83610d3f565b610a5b576040517f08c379a0000000000000000000000000000000000000000000000000000000008152600401610a529061209e565b60405180910390fd5b610a678484848461120f565b50505050565b6060610a7882610c12565b610ab7576040517f08c379a0000000000000000000000000000000000000000000000000000000008152600401610aae9061205e565b60405180910390fd5b6000610ac161126b565b90506000815111610ae15760405180602001604052806000815250610b0c565b80610aeb84611282565b604051602001610afc929190611e36565b6040516020818303038152906040525b915050919050565b6000600560008473ffffffffffffffffffffffffffffffffffffffff1673ffffffffffffffffffffffffffffffffffffffff16815260200190815260200160002060008373ffffffffffffffffffffffffffffffffffffffff1673ffffffffffffffffffffffffffffffffffffffff16815260200190815260200160002060009054906101000a900460ff16905092915050565b60007f01ffc9a7000000000000000000000000000000000000000000000000000000007bffffffffffffffffffffffffffffffffffffffffffffffffffffffff1916827bffffffffffffffffffffffffffffffffffffffffffffffffffffffff1916149050919050565b60008073ffffffffffffffffffffffffffffffffffffffff166002600084815260200190815260200160002060009054906101000a900473ffffffffffffffffffffffffffffffffffffffff1673ffffffffffffffffffffffffffffffffffffffff1614159050919050565b600033905090565b816004600083815260200190815260200160002060006101000a81548173ffffffffffffffffffffffffffffffffffffffff021916908373ffffffffffffffffffffffffffffffffffffffff160217905550808273ffffffffffffffffffffffffffffffffffffffff16610cf9836106d3565b73ffffffffffffffffffffffffffffffffffffffff167f8c5be1e5ebec7d5bd14f71427d1e84f3dd0314c0f7b2291e5b200ac8c7c3b92560405160405180910390a45050565b6000610d4a82610c12565b610d89576040517f08c379a0000000000000000000000000000000000000000000000000000000008152600401610d8090611f9e565b60405180910390fd5b6000610d94836106d3565b90508073ffffffffffffffffffffffffffffffffffffffff168473ffffffffffffffffffffffffffffffffffffffff161480610e0357508373ffffffffffffffffffffffffffffffffffffffff16610deb84610490565b73ffffffffffffffffffffffffffffffffffffffff16145b80610e145750610e138185610b14565b5b91505092915050565b8273ffffffffffffffffffffffffffffffffffffffff16610e3d826106d3565b73ffffffffffffffffffffffffffffffffffffffff1614610e93576040517f08c379a0000000000000000000000000000000000000000000000000000000008152600401610e8a90611f1e565b60405180910390fd5b600073ffffffffffffffffffffffffffffffffffffffff168273ffffffffffffffffffffffffffffffffffffffff161415610f03576040517f08c379a0000000000000000000000000000000000000000000000000000000008152600401610efa90611f5e565b60405180910390fd5b610f0e83838361142f565b610f19600082610c86565b6001600360008573ffffffffffffffffffffffffffffffffffffffff1673ffffffffffffffffffffffffffffffffffffffff1681526020019081526020016000206000828254610f699190612219565b925050819055506001600360008473ffffffffffffffffffffffffffffffffffffffff1673ffffffffffffffffffffffffffffffffffffffff1681526020019081526020016000206000828254610fc09190612192565b92505081905550816002600083815260200190815260200160002060006101000a81548173ffffffffffffffffffffffffffffffffffffffff021916908373ffffffffffffffffffffffffffffffffffffffff160217905550808273ffffffffffffffffffffffffffffffffffffffff168473ffffffffffffffffffffffffffffffffffffffff167fddf252ad1be2c89b69c2b068fc378daa952ba7f163c4a11628f55a4df523b3ef60405160405180910390a461107f838383611434565b505050565b61109e828260405180602001604052806000815250611439565b5050565b8173ffffffffffffffffffffffffffffffffffffffff168373ffffffffffffffffffffffffffffffffffffffff161415611111576040517f08c379a000000000000000000000000000000000000000000000000000000000815260040161110890611f7e565b60405180910390fd5b80600560008573ffffffffffffffffffffffffffffffffffffffff1673ffffffffffffffffffffffffffffffffffffffff16815260200190815260200160002060008473ffffffffffffffffffffffffffffffffffffffff1673ffffffffffffffffffffffffffffffffffffffff16815260200190815260200160002060006101000a81548160ff0219169083151502179055508173ffffffffffffffffffffffffffffffffffffffff168373ffffffffffffffffffffffffffffffffffffffff167f17307eab39ab6107e8899845ad3d59bd9653f200f220920489ca2b5937696c31836040516112029190611ec1565b60405180910390a3505050565b61121a848484610e1d565b61122684848484611494565b611265576040517f08c379a000000000000000000000000000000000000000000000000000000000815260040161125c90611efe565b60405180910390fd5b50505050565b606060405180602001604052806000815250905090565b606060008214156112ca576040518060400160405280600181526020017f3000000000000000000000000000000000000000000000000000000000000000815250905061142a565b600082905060005b600082146112fc5780806112e590612366565b915050600a826112f591906121e8565b91506112d2565b60008167ffffffffffffffff81111561133e577f4e487b7100000000000000000000000000000000000000000000000000000000600052604160045260246000fd5b6040519080825280601f01601f1916602001820160405280156113705781602001600182028036833780820191505090505b5090505b60008514611423576001826113899190612219565b9150600a8561139891906123af565b60306113a49190612192565b60f81b8183815181106113e0577f4e487b7100000000000000000000000000000000000000000000000000000000600052603260045260246000fd5b60200101907effffffffffffffffffffffffffffffffffffffffffffffffffffffffffffff1916908160001a905350600a8561141c91906121e8565b9450611374565b8093505050505b919050565b505050565b505050565b611443838361162b565b6114506000848484611494565b61148f576040517f08c379a000000000000000000000000000000000000000000000000000000000815260040161148690611efe565b60405180910390fd5b505050565b60006114b58473ffffffffffffffffffffffffffffffffffffffff16611805565b1561161e578373ffffffffffffffffffffffffffffffffffffffff1663150b7a026114de610c7e565b8786866040518563ffffffff1660e01b81526004016115009493929190611e75565b602060405180830381600087803b15801561151a57600080fd5b505af192505050801561154b57506040513d601f19601f820116820180604052508101906115489190611b07565b60015b6115ce573d806000811461157b576040519150601f19603f3d011682016040523d82523d6000602084013e611580565b606091505b506000815114156115c6576040517f08c379a00000000000000000000000000000000000000000000000000000000081526004016115bd90611efe565b60405180910390fd5b805181602001fd5b63150b7a0260e01b7bffffffffffffffffffffffffffffffffffffffffffffffffffffffff1916817bffffffffffffffffffffffffffffffffffffffffffffffffffffffff191614915050611623565b600190505b949350505050565b600073ffffffffffffffffffffffffffffffffffffffff168273ffffffffffffffffffffffffffffffffffffffff16141561169b576040517f08c379a00000000000000000000000000000000000000000000000000000000081526004016116929061201e565b60405180910390fd5b6116a481610c12565b156116e4576040517f08c379a00000000000000000000000000000000000000000000000000000000081526004016116db90611f3e565b60405180910390fd5b6116f06000838361142f565b6001600360008473ffffffffffffffffffffffffffffffffffffffff1673ffffffffffffffffffffffffffffffffffffffff16815260200190815260200160002060008282546117409190612192565b92505081905550816002600083815260200190815260200160002060006101000a81548173ffffffffffffffffffffffffffffffffffffffff021916908373ffffffffffffffffffffffffffffffffffffffff160217905550808273ffffffffffffffffffffffffffffffffffffffff16600073ffffffffffffffffffffffffffffffffffffffff167fddf252ad1be2c89b69c2b068fc378daa952ba7f163c4a11628f55a4df523b3ef60405160405180910390a461180160008383611434565b5050565b6000808273ffffffffffffffffffffffffffffffffffffffff163b119050919050565b600061183b6118368461211e565b6120f9565b90508281526020810184848401111561185357600080fd5b61185e8482856122c1565b509392505050565b600081359050611875816128b6565b92915050565b60008151905061188a816128b6565b92915050565b60008135905061189f816128cd565b92915050565b6000813590506118b4816128e4565b92915050565b6000815190506118c9816128e4565b92915050565b600082601f8301126118e057600080fd5b81356118f0848260208601611828565b91505092915050565b600081359050611908816128fb565b92915050565b60006020828403121561192057600080fd5b600061192e84828501611866565b91505092915050565b60006020828403121561194957600080fd5b60006119578482850161187b565b91505092915050565b6000806040838503121561197357600080fd5b600061198185828601611866565b925050602061199285828601611866565b9150509250929050565b6000806000606084860312156119b157600080fd5b60006119bf86828701611866565b93505060206119d086828701611866565b92505060406119e1868287016118f9565b9150509250925092565b60008060008060808587031215611a0157600080fd5b6000611a0f87828801611866565b9450506020611a2087828801611866565b9350506040611a31878288016118f9565b925050606085013567ffffffffffffffff811115611a4e57600080fd5b611a5a878288016118cf565b91505092959194509250565b60008060408385031215611a7957600080fd5b6000611a8785828601611866565b9250506020611a9885828601611890565b9150509250929050565b60008060408385031215611ab557600080fd5b6000611ac385828601611866565b9250506020611ad4858286016118f9565b9150509250929050565b600060208284031215611af057600080fd5b6000611afe848285016118a5565b91505092915050565b600060208284031215611b1957600080fd5b6000611b27848285016118ba565b91505092915050565b600060208284031215611b4257600080fd5b6000611b50848285016118f9565b91505092915050565b611b628161224d565b82525050565b611b718161225f565b82525050565b6000611b828261214f565b611b8c8185612165565b9350611b9c8185602086016122d0565b611ba58161249c565b840191505092915050565b6000611bbb8261215a565b611bc58185612176565b9350611bd58185602086016122d0565b611bde8161249c565b840191505092915050565b6000611bf48261215a565b611bfe8185612187565b9350611c0e8185602086016122d0565b80840191505092915050565b6000611c27603283612176565b9150611c32826124ad565b604082019050919050565b6000611c4a602583612176565b9150611c55826124fc565b604082019050919050565b6000611c6d601c83612176565b9150611c788261254b565b602082019050919050565b6000611c90602483612176565b9150611c9b82612574565b604082019050919050565b6000611cb3601983612176565b9150611cbe826125c3565b602082019050919050565b6000611cd6602c83612176565b9150611ce1826125ec565b604082019050919050565b6000611cf9603883612176565b9150611d048261263b565b604082019050919050565b6000611d1c602a83612176565b9150611d278261268a565b604082019050919050565b6000611d3f602983612176565b9150611d4a826126d9565b604082019050919050565b6000611d62602083612176565b9150611d6d82612728565b602082019050919050565b6000611d85602c83612176565b9150611d9082612751565b604082019050919050565b6000611da8602f83612176565b9150611db3826127a0565b604082019050919050565b6000611dcb602183612176565b9150611dd6826127ef565b604082019050919050565b6000611dee603183612176565b9150611df98261283e565b604082019050919050565b6000611e11601f83612176565b9150611e1c8261288d565b602082019050919050565b611e30816122b7565b82525050565b6000611e428285611be9565b9150611e4e8284611be9565b91508190509392505050565b6000602082019050611e6f6000830184611b59565b92915050565b6000608082019050611e8a6000830187611b59565b611e976020830186611b59565b611ea46040830185611e27565b8181036060830152611eb68184611b77565b905095945050505050565b6000602082019050611ed66000830184611b68565b92915050565b60006020820190508181036000830152611ef68184611bb0565b905092915050565b60006020820190508181036000830152611f1781611c1a565b9050919050565b60006020820190508181036000830152611f3781611c3d565b9050919050565b60006020820190508181036000830152611f5781611c60565b9050919050565b60006020820190508181036000830152611f7781611c83565b9050919050565b60006020820190508181036000830152611f9781611ca6565b9050919050565b60006020820190508181036000830152611fb781611cc9565b9050919050565b60006020820190508181036000830152611fd781611cec565b9050919050565b60006020820190508181036000830152611ff781611d0f565b9050919050565b6000602082019050818103600083015261201781611d32565b9050919050565b6000602082019050818103600083015261203781611d55565b9050919050565b6000602082019050818103600083015261205781611d78565b9050919050565b6000602082019050818103600083015261207781611d9b565b9050919050565b6000602082019050818103600083015261209781611dbe565b9050919050565b600060208201905081810360008301526120b781611de1565b9050919050565b600060208201905081810360008301526120d781611e04565b9050919050565b60006020820190506120f36000830184611e27565b92915050565b6000612103612114565b905061210f8282612335565b919050565b6000604051905090565b600067ffffffffffffffff8211156121395761213861246d565b5b6121428261249c565b9050602081019050919050565b600081519050919050565b600081519050919050565b600082825260208201905092915050565b600082825260208201905092915050565b600081905092915050565b600061219d826122b7565b91506121a8836122b7565b9250827fffffffffffffffffffffffffffffffffffffffffffffffffffffffffffffffff038211156121dd576121dc6123e0565b5b828201905092915050565b60006121f3826122b7565b91506121fe836122b7565b92508261220e5761220d61240f565b5b828204905092915050565b6000612224826122b7565b915061222f836122b7565b925082821015612242576122416123e0565b5b828203905092915050565b600061225882612297565b9050919050565b60008115159050919050565b60007fffffffff0000000000000000000000000000000000000000000000000000000082169050919050565b600073ffffffffffffffffffffffffffffffffffffffff82169050919050565b6000819050919050565b82818337600083830152505050565b60005b838110156122ee5780820151818401526020810190506122d3565b838111156122fd576000848401525b50505050565b6000600282049050600182168061231b57607f821691505b6020821081141561232f5761232e61243e565b5b50919050565b61233e8261249c565b810181811067ffffffffffffffff8211171561235d5761235c61246d565b5b80604052505050565b6000612371826122b7565b91507fffffffffffffffffffffffffffffffffffffffffffffffffffffffffffffffff8214156123a4576123a36123e0565b5b600182019050919050565b60006123ba826122b7565b91506123c5836122b7565b9250826123d5576123d461240f565b5b828206905092915050565b7f4e487b7100000000000000000000000000000000000000000000000000000000600052601160045260246000fd5b7f4e487b7100000000000000000000000000000000000000000000000000000000600052601260045260246000fd5b7f4e487b7100000000000000000000000000000000000000000000000000000000600052602260045260246000fd5b7f4e487b7100000000000000000000000000000000000000000000000000000000600052604160045260246000fd5b6000601f19601f8301169050919050565b7f4552433732313a207472616e7366657220746f206e6f6e20455243373231526560008201527f63656976657220696d706c656d656e7465720000000000000000000000000000602082015250565b7f4552433732313a207472616e736665722066726f6d20696e636f72726563742060008201527f6f776e6572000000000000000000000000000000000000000000000000000000602082015250565b7f4552433732313a20746f6b656e20616c7265616479206d696e74656400000000600082015250565b7f4552433732313a207472616e7366657220746f20746865207a65726f2061646460008201527f7265737300000000000000000000000000000000000000000000000000000000602082015250565b7f4552433732313a20617070726f766520746f2063616c6c657200000000000000600082015250565b7f4552433732313a206f70657261746f7220717565727920666f72206e6f6e657860008201527f697374656e7420746f6b656e0000000000000000000000000000000000000000602082015250565b7f4552433732313a20617070726f76652063616c6c6572206973206e6f74206f7760008201527f6e6572206e6f7220617070726f76656420666f7220616c6c0000000000000000602082015250565b7f4552433732313a2062616c616e636520717565727920666f7220746865207a6560008201527f726f206164647265737300000000000000000000000000000000000000000000602082015250565b7f4552433732313a206f776e657220717565727920666f72206e6f6e657869737460008201527f656e7420746f6b656e0000000000000000000000000000000000000000000000602082015250565b7f4552433732313a206d696e7420746f20746865207a65726f2061646472657373600082015250565b7f4552433732313a20617070726f76656420717565727920666f72206e6f6e657860008201527f697374656e7420746f6b656e0000000000000000000000000000000000000000602082015250565b7f4552433732314d657461646174613a2055524920717565727920666f72206e6f60008201527f6e6578697374656e7420746f6b656e0000000000000000000000000000000000602082015250565b7f4552433732313a20617070726f76616c20746f2063757272656e74206f776e6560008201527f7200000000000000000000000000000000000000000000000000000000000000602082015250565b7f4552433732313a207472616e736665722063616c6c6572206973206e6f74206f60008201527f776e6572206e6f7220617070726f766564000000000000000000000000000000602082015250565b7f4e6f7420617574686f72697a656420746f206d696e742074686973204e465400600082015250565b6128bf8161224d565b81146128ca57600080fd5b50565b6128d68161225f565b81146128e157600080fd5b50565b6128ed8161226b565b81146128f857600080fd5b50565b612904816122b7565b811461290f57600080fd5b5056fea26469706673582212206e793ce58fcada3384ae1a5d6aa8e65a5d0e1e333ec4dab6a84bef0638cec0f064736f6c63430008040033",
  "immutableReferences": {},
  "source": "// SPDX-License-Identifier: MIT\r\npragma solidity ^0.8.4;\r\n\r\nimport \"@openzeppelin/contracts/token/ERC20/ERC20.sol\";\r\nimport \"@openzeppelin/contracts/access/Ownable.sol\";\r\nimport \"@openzeppelin/contracts/token/ERC721/ERC721.sol\";\r\n\r\ncontract Lottery is ERC20, Ownable {\r\n\r\n    // Address of the NFT contract for the Project\r\n    address public nft;\r\n\r\n    constructor() ERC20(\"Lottery\", \"RFR\") {\r\n        _mint(address(this), 100000);\r\n        nft = address(new MainERC721());\r\n    }\r\n\r\n    // Lottery prize winner\r\n    address public winner;\r\n\r\n    // User registration\r\n    mapping(address => address) public user_contract;\r\n\r\n    // ERC-20 token price\r\n    function tokenPrice(uint256 _numTokens) internal pure returns (uint256) {\r\n        return _numTokens * (1 ether);\r\n    }\r\n\r\n    // View the ERC-20 token balance of a user\r\n    function tokenBalance(address _account) public view returns (uint256) {\r\n        return balanceOf(_account);\r\n    }\r\n\r\n    // View the ERC-20 token balance of the Smart Contract\r\n    function contractTokenBalance() public view returns (uint256) {\r\n        return balanceOf(address(this));\r\n    }\r\n\r\n    // View the ether balance of the Smart Contract\r\n    function contractEtherBalance() public view returns (uint256) {\r\n        return address(this).balance;\r\n    }\r\n\r\n    // Generate new ERC-20 tokens\r\n    function mint(uint256 _amount) public onlyOwner {\r\n        _mint(address(this), _amount);\r\n    }\r\n\r\n    // User registration\r\n    function register() internal {\r\n        address personalContractAddress = address(new TicketNFTs(msg.sender, address(this), nft));\r\n        user_contract[msg.sender] = personalContractAddress;\r\n    }\r\n\r\n    // User information\r\n    function userInfo(address _account) public view returns (address) {\r\n        return user_contract[_account];\r\n    }\r\n\r\n    // Purchase of ERC-20 tokens\r\n    function buyTokens(uint256 _numTokens) public payable {\r\n        // Register the user if they are not already registered\r\n        if (user_contract[msg.sender] == address(0)) {\r\n            register();\r\n        }\r\n\r\n        // Calculate the cost of the tokens to buy\r\n        uint256 cost = tokenPrice(_numTokens);\r\n        require(msg.value >= cost, \"Buy more tokens or pay with more ether\");\r\n\r\n        // Check if enough tokens are available in the contract\r\n        uint256 balance = contractTokenBalance();\r\n        require(_numTokens <= balance, \"Buy an appropriate number of tokens\");\r\n\r\n        // Return any excess ether\r\n        uint256 returnValue = msg.value - cost;\r\n        if (returnValue > 0) {\r\n            payable(msg.sender).transfer(returnValue);\r\n        }\r\n\r\n        // Transfer tokens to the user\r\n        _transfer(address(this), msg.sender, _numTokens);\r\n    }\r\n\r\n    // Return tokens to the Smart Contract\r\n    function returnTokens(uint _numTokens) public payable {\r\n        require(_numTokens > 0, \"Must return more than 0 tokens\");\r\n        require(_numTokens <= tokenBalance(msg.sender), \"Insufficient tokens to return\");\r\n\r\n        // Transfer tokens from the user to the contract\r\n        _transfer(msg.sender, address(this), _numTokens);\r\n        \r\n        // Pay the equivalent ether price of the returned tokens\r\n        payable(msg.sender).transfer(tokenPrice(_numTokens));\r\n    }\r\n\r\n    // Lottery ticket price (in ERC-20 tokens)\r\n    uint public ticketPrice = 5;\r\n\r\n    // User-to-ticket mapping\r\n    mapping(address => uint[]) userTickets;\r\n\r\n    // Ticket-to-winner mapping\r\n    mapping(uint => address) ticketOwner;\r\n\r\n    // Random number for tickets\r\n    uint randNonce = 0;\r\n\r\n    // Purchased lottery tickets\r\n    uint[] purchasedTickets;\r\n\r\n    // Buy lottery tickets\r\n    function buyTicket(uint _numTickets) public {\r\n        // Total ticket price\r\n        uint totalPrice = _numTickets * ticketPrice;\r\n        require(totalPrice <= tokenBalance(msg.sender), \"Insufficient tokens\");\r\n\r\n        // Transfer tokens from the user to the contract\r\n        _transfer(msg.sender, address(this), totalPrice);\r\n\r\n        // Generate tickets\r\n        for (uint i = 0; i < _numTickets; i++) {\r\n            uint random = uint(keccak256(abi.encodePacked(block.timestamp, msg.sender, randNonce))) % 10000;\r\n            randNonce++;\r\n\r\n            // Store ticket data and assign ownership\r\n            userTickets[msg.sender].push(random);\r\n            purchasedTickets.push(random);\r\n            ticketOwner[random] = msg.sender;\r\n\r\n            // Mint a new NFT for the ticket number\r\n            TicketNFTs(user_contract[msg.sender]).mintTicket(msg.sender, random);\r\n        }\r\n    }\r\n\r\n    // View a user's tickets\r\n    function viewTickets(address _owner) public view returns (uint[] memory) {\r\n        return userTickets[_owner];\r\n    }\r\n\r\n    function getWinnerDetails() public view returns (uint, address) {\r\n    require(winner != address(0), \"No winner selected yet\");\r\n    uint winningTicket;\r\n    for (uint i = 0; i < purchasedTickets.length; i++) {\r\n        if (ticketOwner[purchasedTickets[i]] == winner) {\r\n            winningTicket = purchasedTickets[i];\r\n            break;\r\n        }\r\n    }\r\n    return (winningTicket, winner);\r\n}\r\n\r\n\r\n    // Generate the lottery winner\r\n    function generateWinner() public onlyOwner {\r\n        // Determine the length of the array\r\n        uint length = purchasedTickets.length;\r\n        // Ensure at least one ticket was purchased\r\n        require(length > 0, \"No tickets purchased\");\r\n        // Select a random number between: [0-length]\r\n        uint random = uint(keccak256(abi.encodePacked(block.timestamp))) % length;\r\n        // Select the random number\r\n        uint selection = purchasedTickets[random];\r\n        // Lottery winner's address\r\n        winner = ticketOwner[selection];\r\n        // Transfer 95% of the lottery prize to the winner\r\n        payable(winner).transfer(address(this).balance * 95 / 100);\r\n        // Transfer 5% of the lottery prize to the owner\r\n        payable(owner()).transfer(address(this).balance * 5 / 100);\r\n    }\r\n    \r\n}\r\n\r\n// NFT Smart Contract\r\ncontract MainERC721 is ERC721 {\r\n\r\n    address public lotteryAddress;\r\n\r\n    constructor() ERC721(\"Lottery\", \"RF\") {\r\n        lotteryAddress = msg.sender;\r\n    }\r\n\r\n    // NFT minting\r\n    function safeMint(address _owner, uint256 _ticket) public {\r\n        require(msg.sender == Lottery(lotteryAddress).userInfo(_owner), \"Not authorized to mint this NFT\");\r\n        _safeMint(_owner, _ticket);\r\n    }\r\n}\r\n\r\ncontract TicketNFTs {\r\n\r\n    // Owner's relevant data\r\n    struct Owner {\r\n        address ownerAddress;\r\n        address parentContract;\r\n        address nftContract;\r\n        address userContract;\r\n    }\r\n\r\n    Owner public owner;\r\n\r\n    // Smart Contract (child) constructor\r\n    constructor(address _owner, address _parentContract, address _nftContract) {\r\n        owner = Owner(_owner, _parentContract, _nftContract, address(this));\r\n    }\r\n\r\n    // Lottery ticket number conversion\r\n    function mintTicket(address _owner, uint _ticket) public {\r\n        require(msg.sender == owner.parentContract, \"Not authorized to execute this function\");\r\n        MainERC721(owner.nftContract).safeMint(_owner, _ticket);\r\n    }\r\n}",
  "sourcePath": "C:\\Users\\rober_m72ddjp\\Desktop\\Coding\\amengual\\Lottery\\src\\contracts\\lottery.sol",
  "compiler": {
    "name": "solc",
    "version": "0.8.4+commit.c7e474f2.Emscripten.clang"
  },
  "schemaVersion": "3.4.7",
  "updatedAt": "2024-12-18T21:22:01.933Z",
  "networkType": "ethereum",
  "devdoc": {
    "kind": "dev",
    "methods": {
      "allowance(address,address)": {
        "details": "See {IERC20-allowance}."
      },
      "approve(address,uint256)": {
        "details": "See {IERC20-approve}. NOTE: If `amount` is the maximum `uint256`, the allowance is not updated on `transferFrom`. This is semantically equivalent to an infinite approval. Requirements: - `spender` cannot be the zero address."
      },
      "balanceOf(address)": {
        "details": "See {IERC20-balanceOf}."
      },
      "decimals()": {
        "details": "Returns the number of decimals used to get its user representation. For example, if `decimals` equals `2`, a balance of `505` tokens should be displayed to a user as `5.05` (`505 / 10 ** 2`). Tokens usually opt for a value of 18, imitating the relationship between Ether and Wei. This is the value {ERC20} uses, unless this function is overridden; NOTE: This information is only used for _display_ purposes: it in no way affects any of the arithmetic of the contract, including {IERC20-balanceOf} and {IERC20-transfer}."
      },
      "decreaseAllowance(address,uint256)": {
        "details": "Atomically decreases the allowance granted to `spender` by the caller. This is an alternative to {approve} that can be used as a mitigation for problems described in {IERC20-approve}. Emits an {Approval} event indicating the updated allowance. Requirements: - `spender` cannot be the zero address. - `spender` must have allowance for the caller of at least `subtractedValue`."
      },
      "increaseAllowance(address,uint256)": {
        "details": "Atomically increases the allowance granted to `spender` by the caller. This is an alternative to {approve} that can be used as a mitigation for problems described in {IERC20-approve}. Emits an {Approval} event indicating the updated allowance. Requirements: - `spender` cannot be the zero address."
      },
      "name()": {
        "details": "Returns the name of the token."
      },
      "owner()": {
        "details": "Returns the address of the current owner."
      },
      "renounceOwnership()": {
        "details": "Leaves the contract without owner. It will not be possible to call `onlyOwner` functions anymore. Can only be called by the current owner. NOTE: Renouncing ownership will leave the contract without an owner, thereby removing any functionality that is only available to the owner."
      },
      "symbol()": {
        "details": "Returns the symbol of the token, usually a shorter version of the name."
      },
      "totalSupply()": {
        "details": "See {IERC20-totalSupply}."
      },
      "transfer(address,uint256)": {
        "details": "See {IERC20-transfer}. Requirements: - `to` cannot be the zero address. - the caller must have a balance of at least `amount`."
      },
      "transferFrom(address,address,uint256)": {
        "details": "See {IERC20-transferFrom}. Emits an {Approval} event indicating the updated allowance. This is not required by the EIP. See the note at the beginning of {ERC20}. NOTE: Does not update the allowance if the current allowance is the maximum `uint256`. Requirements: - `from` and `to` cannot be the zero address. - `from` must have a balance of at least `amount`. - the caller must have allowance for ``from``'s tokens of at least `amount`."
      },
      "transferOwnership(address)": {
        "details": "Transfers ownership of the contract to a new account (`newOwner`). Can only be called by the current owner."
      }
    },
    "version": 1
  },
  "userdoc": {
    "kind": "user",
    "methods": {},
    "version": 1
  }
}