{
  "contractName": "TicketNFTs",
  "abi": [
    {
      "inputs": [
        {
          "internalType": "address",
          "name": "_owner",
          "type": "address"
        },
        {
          "internalType": "address",
          "name": "_parentContract",
          "type": "address"
        },
        {
          "internalType": "address",
          "name": "_nftContract",
          "type": "address"
        }
      ],
      "stateMutability": "nonpayable",
      "type": "constructor"
    },
    {
      "inputs": [],
      "name": "owner",
      "outputs": [
        {
          "internalType": "address",
          "name": "ownerAddress",
          "type": "address"
        },
        {
          "internalType": "address",
          "name": "parentContract",
          "type": "address"
        },
        {
          "internalType": "address",
          "name": "nftContract",
          "type": "address"
        },
        {
          "internalType": "address",
          "name": "userContract",
          "type": "address"
        }
      ],
      "stateMutability": "view",
      "type": "function"
    },
    {
      "inputs": [
        {
          "internalType": "address",
          "name": "_owner",
          "type": "address"
        },
        {
          "internalType": "uint256",
          "name": "_ticket",
          "type": "uint256"
        }
      ],
      "name": "mintTicket",
      "outputs": [],
      "stateMutability": "nonpayable",
      "type": "function"
    }
  ],
  "bytecode": "0x608060405234801561001057600080fd5b50604051610703380380610703833981810160405281019061003291906101e8565b60405180608001604052808473ffffffffffffffffffffffffffffffffffffffff1681526020018373ffffffffffffffffffffffffffffffffffffffff1681526020018273ffffffffffffffffffffffffffffffffffffffff1681526020013073ffffffffffffffffffffffffffffffffffffffff168152506000808201518160000160006101000a81548173ffffffffffffffffffffffffffffffffffffffff021916908373ffffffffffffffffffffffffffffffffffffffff16021790555060208201518160010160006101000a81548173ffffffffffffffffffffffffffffffffffffffff021916908373ffffffffffffffffffffffffffffffffffffffff16021790555060408201518160020160006101000a81548173ffffffffffffffffffffffffffffffffffffffff021916908373ffffffffffffffffffffffffffffffffffffffff16021790555060608201518160030160006101000a81548173ffffffffffffffffffffffffffffffffffffffff021916908373ffffffffffffffffffffffffffffffffffffffff160217905550905050505050610280565b6000815190506101e281610269565b92915050565b6000806000606084860312156101fd57600080fd5b600061020b868287016101d3565b935050602061021c868287016101d3565b925050604061022d868287016101d3565b9150509250925092565b600061024282610249565b9050919050565b600073ffffffffffffffffffffffffffffffffffffffff82169050919050565b61027281610237565b811461027d57600080fd5b50565b6104748061028f6000396000f3fe608060405234801561001057600080fd5b50600436106100365760003560e01c80638da5cb5b1461003b578063a5f7f4661461005c575b600080fd5b610043610078565b60405161005394939291906102e6565b60405180910390f35b61007660048036038101906100719190610269565b610116565b005b60008060000160009054906101000a900473ffffffffffffffffffffffffffffffffffffffff16908060010160009054906101000a900473ffffffffffffffffffffffffffffffffffffffff16908060020160009054906101000a900473ffffffffffffffffffffffffffffffffffffffff16908060030160009054906101000a900473ffffffffffffffffffffffffffffffffffffffff16905084565b600060010160009054906101000a900473ffffffffffffffffffffffffffffffffffffffff1673ffffffffffffffffffffffffffffffffffffffff163373ffffffffffffffffffffffffffffffffffffffff16146101a9576040517f08c379a00000000000000000000000000000000000000000000000000000000081526004016101a090610354565b60405180910390fd5b600060020160009054906101000a900473ffffffffffffffffffffffffffffffffffffffff1673ffffffffffffffffffffffffffffffffffffffff1663a144819483836040518363ffffffff1660e01b815260040161020992919061032b565b600060405180830381600087803b15801561022357600080fd5b505af1158015610237573d6000803e3d6000fd5b505050505050565b60008135905061024e81610410565b92915050565b60008135905061026381610427565b92915050565b6000806040838503121561027c57600080fd5b600061028a8582860161023f565b925050602061029b85828601610254565b9150509250929050565b6102ae81610385565b82525050565b60006102c1602783610374565b91506102cc826103c1565b604082019050919050565b6102e0816103b7565b82525050565b60006080820190506102fb60008301876102a5565b61030860208301866102a5565b61031560408301856102a5565b61032260608301846102a5565b95945050505050565b600060408201905061034060008301856102a5565b61034d60208301846102d7565b9392505050565b6000602082019050818103600083015261036d816102b4565b9050919050565b600082825260208201905092915050565b600061039082610397565b9050919050565b600073ffffffffffffffffffffffffffffffffffffffff82169050919050565b6000819050919050565b7f4e6f7420617574686f72697a656420746f20657865637574652074686973206660008201527f756e6374696f6e00000000000000000000000000000000000000000000000000602082015250565b61041981610385565b811461042457600080fd5b50565b610430816103b7565b811461043b57600080fd5b5056fea2646970667358221220dcc78f4ca0153eb7b2645b7a6ef1a227218217329c23269d775416b2dba787f564736f6c63430008040033",
  "immutableReferences": {},
  "source": "// SPDX-License-Identifier: MIT\r\npragma solidity ^0.8.4;\r\n\r\nimport \"@openzeppelin/contracts/token/ERC20/ERC20.sol\";\r\nimport \"@openzeppelin/contracts/access/Ownable.sol\";\r\nimport \"@openzeppelin/contracts/token/ERC721/ERC721.sol\";\r\n\r\ncontract Lottery is ERC20, Ownable {\r\n\r\n    // Address of the NFT contract for the Project\r\n    address public nft;\r\n\r\n    constructor() ERC20(\"Lottery\", \"RFR\") {\r\n        _mint(address(this), 100000);\r\n        nft = address(new MainERC721());\r\n    }\r\n\r\n    // Lottery prize winner\r\n    address public winner;\r\n\r\n    // User registration\r\n    mapping(address => address) public user_contract;\r\n\r\n    // ERC-20 token price\r\n    function tokenPrice(uint256 _numTokens) internal pure returns (uint256) {\r\n        return _numTokens * (1 ether);\r\n    }\r\n\r\n    // View the ERC-20 token balance of a user\r\n    function tokenBalance(address _account) public view returns (uint256) {\r\n        return balanceOf(_account);\r\n    }\r\n\r\n    // View the ERC-20 token balance of the Smart Contract\r\n    function contractTokenBalance() public view returns (uint256) {\r\n        return balanceOf(address(this));\r\n    }\r\n\r\n    // View the ether balance of the Smart Contract\r\n    function contractEtherBalance() public view returns (uint256) {\r\n        return address(this).balance;\r\n    }\r\n\r\n    // Generate new ERC-20 tokens\r\n    function mint(uint256 _amount) public onlyOwner {\r\n        _mint(address(this), _amount);\r\n    }\r\n\r\n    // User registration\r\n    function register() internal {\r\n        address personalContractAddress = address(new TicketNFTs(msg.sender, address(this), nft));\r\n        user_contract[msg.sender] = personalContractAddress;\r\n    }\r\n\r\n    // User information\r\n    function userInfo(address _account) public view returns (address) {\r\n        return user_contract[_account];\r\n    }\r\n\r\n    // Purchase of ERC-20 tokens\r\n    function buyTokens(uint256 _numTokens) public payable {\r\n        // Register the user if they are not already registered\r\n        if (user_contract[msg.sender] == address(0)) {\r\n            register();\r\n        }\r\n\r\n        // Calculate the cost of the tokens to buy\r\n        uint256 cost = tokenPrice(_numTokens);\r\n        require(msg.value >= cost, \"Buy more tokens or pay with more ether\");\r\n\r\n        // Check if enough tokens are available in the contract\r\n        uint256 balance = contractTokenBalance();\r\n        require(_numTokens <= balance, \"Buy an appropriate number of tokens\");\r\n\r\n        // Return any excess ether\r\n        uint256 returnValue = msg.value - cost;\r\n        if (returnValue > 0) {\r\n            payable(msg.sender).transfer(returnValue);\r\n        }\r\n\r\n        // Transfer tokens to the user\r\n        _transfer(address(this), msg.sender, _numTokens);\r\n    }\r\n\r\n    // Return tokens to the Smart Contract\r\n    function returnTokens(uint _numTokens) public payable {\r\n        require(_numTokens > 0, \"Must return more than 0 tokens\");\r\n        require(_numTokens <= tokenBalance(msg.sender), \"Insufficient tokens to return\");\r\n\r\n        // Transfer tokens from the user to the contract\r\n        _transfer(msg.sender, address(this), _numTokens);\r\n        \r\n        // Pay the equivalent ether price of the returned tokens\r\n        payable(msg.sender).transfer(tokenPrice(_numTokens));\r\n    }\r\n\r\n    // Lottery ticket price (in ERC-20 tokens)\r\n    uint public ticketPrice = 5;\r\n\r\n    // User-to-ticket mapping\r\n    mapping(address => uint[]) userTickets;\r\n\r\n    // Ticket-to-winner mapping\r\n    mapping(uint => address) ticketOwner;\r\n\r\n    // Random number for tickets\r\n    uint randNonce = 0;\r\n\r\n    // Purchased lottery tickets\r\n    uint[] purchasedTickets;\r\n\r\n    // Buy lottery tickets\r\n    function buyTicket(uint _numTickets) public {\r\n        // Total ticket price\r\n        uint totalPrice = _numTickets * ticketPrice;\r\n        require(totalPrice <= tokenBalance(msg.sender), \"Insufficient tokens\");\r\n\r\n        // Transfer tokens from the user to the contract\r\n        _transfer(msg.sender, address(this), totalPrice);\r\n\r\n        // Generate tickets\r\n        for (uint i = 0; i < _numTickets; i++) {\r\n            uint random = uint(keccak256(abi.encodePacked(block.timestamp, msg.sender, randNonce))) % 10000;\r\n            randNonce++;\r\n\r\n            // Store ticket data and assign ownership\r\n            userTickets[msg.sender].push(random);\r\n            purchasedTickets.push(random);\r\n            ticketOwner[random] = msg.sender;\r\n\r\n            // Mint a new NFT for the ticket number\r\n            TicketNFTs(user_contract[msg.sender]).mintTicket(msg.sender, random);\r\n        }\r\n    }\r\n\r\n    // View a user's tickets\r\n    function viewTickets(address _owner) public view returns (uint[] memory) {\r\n        return userTickets[_owner];\r\n    }\r\n\r\n    function getWinnerDetails() public view returns (uint, address) {\r\n    require(winner != address(0), \"No winner selected yet\");\r\n    uint winningTicket;\r\n    for (uint i = 0; i < purchasedTickets.length; i++) {\r\n        if (ticketOwner[purchasedTickets[i]] == winner) {\r\n            winningTicket = purchasedTickets[i];\r\n            break;\r\n        }\r\n    }\r\n    return (winningTicket, winner);\r\n}\r\n\r\n\r\n    // Generate the lottery winner\r\n    function generateWinner() public onlyOwner {\r\n        // Determine the length of the array\r\n        uint length = purchasedTickets.length;\r\n        // Ensure at least one ticket was purchased\r\n        require(length > 0, \"No tickets purchased\");\r\n        // Select a random number between: [0-length]\r\n        uint random = uint(keccak256(abi.encodePacked(block.timestamp))) % length;\r\n        // Select the random number\r\n        uint selection = purchasedTickets[random];\r\n        // Lottery winner's address\r\n        winner = ticketOwner[selection];\r\n        // Transfer 95% of the lottery prize to the winner\r\n        payable(winner).transfer(address(this).balance * 95 / 100);\r\n        // Transfer 5% of the lottery prize to the owner\r\n        payable(owner()).transfer(address(this).balance * 5 / 100);\r\n    }\r\n    \r\n}\r\n\r\n// NFT Smart Contract\r\ncontract MainERC721 is ERC721 {\r\n\r\n    address public lotteryAddress;\r\n\r\n    constructor() ERC721(\"Lottery\", \"RF\") {\r\n        lotteryAddress = msg.sender;\r\n    }\r\n\r\n    // NFT minting\r\n    function safeMint(address _owner, uint256 _ticket) public {\r\n        require(msg.sender == Lottery(lotteryAddress).userInfo(_owner), \"Not authorized to mint this NFT\");\r\n        _safeMint(_owner, _ticket);\r\n    }\r\n}\r\n\r\ncontract TicketNFTs {\r\n\r\n    // Owner's relevant data\r\n    struct Owner {\r\n        address ownerAddress;\r\n        address parentContract;\r\n        address nftContract;\r\n        address userContract;\r\n    }\r\n\r\n    Owner public owner;\r\n\r\n    // Smart Contract (child) constructor\r\n    constructor(address _owner, address _parentContract, address _nftContract) {\r\n        owner = Owner(_owner, _parentContract, _nftContract, address(this));\r\n    }\r\n\r\n    // Lottery ticket number conversion\r\n    function mintTicket(address _owner, uint _ticket) public {\r\n        require(msg.sender == owner.parentContract, \"Not authorized to execute this function\");\r\n        MainERC721(owner.nftContract).safeMint(_owner, _ticket);\r\n    }\r\n}",
  "sourcePath": "C:\\Users\\rober_m72ddjp\\Desktop\\Coding\\amengual\\Lottery\\src\\contracts\\lottery.sol",
  "compiler": {
    "name": "solc",
    "version": "0.8.4+commit.c7e474f2.Emscripten.clang"
  },
  "schemaVersion": "3.4.7",
  "updatedAt": "2024-12-18T21:21:56.864Z",
  "devdoc": {
    "kind": "dev",
    "methods": {},
    "version": 1
  },
  "userdoc": {
    "kind": "user",
    "methods": {},
    "version": 1
  }
}